{
	"_format": "hh-sol-artifact-1",
	"contractName": "ERC721Metadata",
	"sourceName": "@0xver/solver/token/metadata/ERC721Metadata.sol",
	"abi": [
		{
			"inputs": [
				{
					"internalType": "string",
					"name": "name_",
					"type": "string"
				},
				{
					"internalType": "string",
					"name": "symbol_",
					"type": "string"
				}
			],
			"stateMutability": "nonpayable",
			"type": "constructor"
		},
		{
			"inputs": [
				{
					"internalType": "bool",
					"name": "_isApprovedForAll",
					"type": "bool"
				},
				{
					"internalType": "address",
					"name": "_getApproved",
					"type": "address"
				},
				{
					"internalType": "address",
					"name": "_ownerOf",
					"type": "address"
				},
				{
					"internalType": "address",
					"name": "_sender",
					"type": "address"
				}
			],
			"name": "NonApprovedNonOwner",
			"type": "error"
		},
		{
			"inputs": [
				{
					"internalType": "address",
					"name": "_ownerOf",
					"type": "address"
				},
				{
					"internalType": "address",
					"name": "_sender",
					"type": "address"
				}
			],
			"name": "NonOwnerApproval",
			"type": "error"
		},
		{
			"inputs": [
				{
					"internalType": "address",
					"name": "_contract",
					"type": "address"
				}
			],
			"name": "TransferToNonERC721Receiver",
			"type": "error"
		},
		{
			"inputs": [
				{
					"internalType": "address",
					"name": "_from",
					"type": "address"
				},
				{
					"internalType": "address",
					"name": "_to",
					"type": "address"
				},
				{
					"internalType": "uint256",
					"name": "_tokenId",
					"type": "uint256"
				}
			],
			"name": "TransferTokenToZeroAddress",
			"type": "error"
		},
		{
			"inputs": [
				{
					"internalType": "address",
					"name": "_origin",
					"type": "address"
				},
				{
					"internalType": "address",
					"name": "_sender",
					"type": "address"
				}
			],
			"name": "TxOriginNonSender",
			"type": "error"
		},
		{
			"anonymous": false,
			"inputs": [
				{
					"indexed": true,
					"internalType": "address",
					"name": "_owner",
					"type": "address"
				},
				{
					"indexed": true,
					"internalType": "address",
					"name": "_approved",
					"type": "address"
				},
				{
					"indexed": true,
					"internalType": "uint256",
					"name": "_tokenId",
					"type": "uint256"
				}
			],
			"name": "Approval",
			"type": "event"
		},
		{
			"anonymous": false,
			"inputs": [
				{
					"indexed": true,
					"internalType": "address",
					"name": "_owner",
					"type": "address"
				},
				{
					"indexed": true,
					"internalType": "address",
					"name": "_operator",
					"type": "address"
				},
				{
					"indexed": false,
					"internalType": "bool",
					"name": "_approved",
					"type": "bool"
				}
			],
			"name": "ApprovalForAll",
			"type": "event"
		},
		{
			"anonymous": false,
			"inputs": [
				{
					"indexed": true,
					"internalType": "address",
					"name": "_from",
					"type": "address"
				},
				{
					"indexed": true,
					"internalType": "address",
					"name": "_to",
					"type": "address"
				},
				{
					"indexed": true,
					"internalType": "uint256",
					"name": "_tokenId",
					"type": "uint256"
				}
			],
			"name": "Transfer",
			"type": "event"
		},
		{
			"inputs": [
				{
					"internalType": "address",
					"name": "_approved",
					"type": "address"
				},
				{
					"internalType": "uint256",
					"name": "_tokenId",
					"type": "uint256"
				}
			],
			"name": "approve",
			"outputs": [],
			"stateMutability": "nonpayable",
			"type": "function"
		},
		{
			"inputs": [
				{
					"internalType": "address",
					"name": "_owner",
					"type": "address"
				}
			],
			"name": "balanceOf",
			"outputs": [
				{
					"internalType": "uint256",
					"name": "",
					"type": "uint256"
				}
			],
			"stateMutability": "view",
			"type": "function"
		},
		{
			"inputs": [
				{
					"internalType": "uint256",
					"name": "_tokenId",
					"type": "uint256"
				}
			],
			"name": "getApproved",
			"outputs": [
				{
					"internalType": "address",
					"name": "",
					"type": "address"
				}
			],
			"stateMutability": "view",
			"type": "function"
		},
		{
			"inputs": [
				{
					"internalType": "address",
					"name": "_owner",
					"type": "address"
				},
				{
					"internalType": "address",
					"name": "_operator",
					"type": "address"
				}
			],
			"name": "isApprovedForAll",
			"outputs": [
				{
					"internalType": "bool",
					"name": "",
					"type": "bool"
				}
			],
			"stateMutability": "view",
			"type": "function"
		},
		{
			"inputs": [],
			"name": "name",
			"outputs": [
				{
					"internalType": "string",
					"name": "",
					"type": "string"
				}
			],
			"stateMutability": "view",
			"type": "function"
		},
		{
			"inputs": [
				{
					"internalType": "uint256",
					"name": "_tokenId",
					"type": "uint256"
				}
			],
			"name": "ownerOf",
			"outputs": [
				{
					"internalType": "address",
					"name": "",
					"type": "address"
				}
			],
			"stateMutability": "view",
			"type": "function"
		},
		{
			"inputs": [
				{
					"internalType": "address",
					"name": "_from",
					"type": "address"
				},
				{
					"internalType": "address",
					"name": "_to",
					"type": "address"
				},
				{
					"internalType": "uint256",
					"name": "_tokenId",
					"type": "uint256"
				}
			],
			"name": "safeTransferFrom",
			"outputs": [],
			"stateMutability": "nonpayable",
			"type": "function"
		},
		{
			"inputs": [
				{
					"internalType": "address",
					"name": "_from",
					"type": "address"
				},
				{
					"internalType": "address",
					"name": "_to",
					"type": "address"
				},
				{
					"internalType": "uint256",
					"name": "_tokenId",
					"type": "uint256"
				},
				{
					"internalType": "bytes",
					"name": "_data",
					"type": "bytes"
				}
			],
			"name": "safeTransferFrom",
			"outputs": [],
			"stateMutability": "nonpayable",
			"type": "function"
		},
		{
			"inputs": [
				{
					"internalType": "address",
					"name": "_operator",
					"type": "address"
				},
				{
					"internalType": "bool",
					"name": "_approved",
					"type": "bool"
				}
			],
			"name": "setApprovalForAll",
			"outputs": [],
			"stateMutability": "nonpayable",
			"type": "function"
		},
		{
			"inputs": [],
			"name": "symbol",
			"outputs": [
				{
					"internalType": "string",
					"name": "",
					"type": "string"
				}
			],
			"stateMutability": "view",
			"type": "function"
		},
		{
			"inputs": [
				{
					"internalType": "uint256",
					"name": "_tokenId",
					"type": "uint256"
				}
			],
			"name": "tokenURI",
			"outputs": [
				{
					"internalType": "string",
					"name": "",
					"type": "string"
				}
			],
			"stateMutability": "view",
			"type": "function"
		},
		{
			"inputs": [],
			"name": "totalSupply",
			"outputs": [
				{
					"internalType": "uint256",
					"name": "",
					"type": "uint256"
				}
			],
			"stateMutability": "view",
			"type": "function"
		},
		{
			"inputs": [
				{
					"internalType": "address",
					"name": "_from",
					"type": "address"
				},
				{
					"internalType": "address",
					"name": "_to",
					"type": "address"
				},
				{
					"internalType": "uint256",
					"name": "_tokenId",
					"type": "uint256"
				}
			],
			"name": "transferFrom",
			"outputs": [],
			"stateMutability": "nonpayable",
			"type": "function"
		}
	],
	"bytecode": "0x60806040523480156200001157600080fd5b5060405162001657380380620016578339810160408190526200003491620001e2565b81516200004990600690602085019062000089565b5080516200005f90600790602084019062000089565b50604080516020810191829052600090819052620000809160089162000089565b5050506200029c565b828054620000979062000249565b90600052602060002090601f016020900481019282620000bb576000855562000106565b82601f10620000d657805160ff191683800117855562000106565b8280016001018555821562000106579182015b8281111562000106578251825591602001919060010190620000e9565b506200011492915062000118565b5090565b5b8082111562000114576000815560010162000119565b600082601f83011262000140578081fd5b81516001600160401b03808211156200015d576200015d62000286565b604051601f8301601f19908116603f0116810190828211818310171562000188576200018862000286565b81604052838152602092508683858801011115620001a4578485fd5b8491505b83821015620001c75785820183015181830184015290820190620001a8565b83821115620001d857848385830101525b9695505050505050565b60008060408385031215620001f5578182fd5b82516001600160401b03808211156200020c578384fd5b6200021a868387016200012f565b9350602085015191508082111562000230578283fd5b506200023f858286016200012f565b9150509250929050565b600181811c908216806200025e57607f821691505b602082108114156200028057634e487b7160e01b600052602260045260246000fd5b50919050565b634e487b7160e01b600052604160045260246000fd5b6113ab80620002ac6000396000f3fe608060405234801561001057600080fd5b50600436106100cf5760003560e01c80636352211e1161008c578063a22cb46511610066578063a22cb465146101de578063b88d4fde146101f1578063c87b56dd14610204578063e985e9c51461021757600080fd5b80636352211e1461018457806370a08231146101ad57806395d89b41146101d657600080fd5b806306fdde03146100d4578063081812fc146100f2578063095ea7b31461013357806318160ddd1461014857806323b872dd1461015e57806342842e0e14610171575b600080fd5b6100dc610263565b6040516100e9919061121d565b60405180910390f35b61011b610100366004611029565b6000908152600460205260409020546001600160a01b031690565b6040516001600160a01b0390911681526020016100e9565b610146610141366004610fd8565b6102f5565b005b6101506103ac565b6040519081526020016100e9565b61014661016c366004610e8e565b6103c3565b61014661017f366004610e8e565b6103d3565b61011b610192366004611029565b6000908152600360205260409020546001600160a01b031690565b6101506101bb366004610e42565b6001600160a01b031660009081526002602052604090205490565b6100dc6103ee565b6101466101ec366004610f9e565b6103fd565b6101466101ff366004610ec9565b610469565b6100dc610212366004611029565b610510565b610253610225366004610e5c565b6001600160a01b03918216600090815260056020908152604080832093909416825291909152205460ff1690565b60405190151581526020016100e9565b606060068054610272906112ce565b80601f016020809104026020016040519081016040528092919081815260200182805461029e906112ce565b80156102eb5780601f106102c0576101008083540402835291602001916102eb565b820191906000526020600020905b8154815290600101906020018083116102ce57829003601f168201915b5050505050905090565b6000818152600360205260409020546001600160a01b0316331461035357600081815260036020526040908190205490516354b6bb9b60e01b81526001600160a01b0390911660048201523360248201526044015b60405180910390fd5b60008181526004602052604080822080546001600160a01b0319166001600160a01b0386169081179091559051839233917f8c5be1e5ebec7d5bd14f71427d1e84f3dd0314c0f7b2291e5b200ac8c7c3b9259190a45050565b60006001546000546103be9190611287565b905090565b6103ce8383836106f1565b505050565b6103ce83838360405180602001604052806000815250610469565b606060078054610272906112ce565b3360008181526005602090815260408083206001600160a01b03871680855290835292819020805460ff191686151590811790915590519081529192917f17307eab39ab6107e8899845ad3d59bd9653f200f220920489ca2b5937696c31910160405180910390a35050565b610473338361084b565b6104f2576000828152600360208181526040808420546001600160a01b039081168086526005845282862033808852908552838720548988526004808752978590205496909552925163e800243760e01b815260ff9094161515958401959095529290921660248201526044810192909252606482015260840161034a565b6104fd8484846106f1565b610509848484846108ce565b5050505050565b6060600061051d836109e8565b9050606061053960405180602001604052806000815250610a22565b600085815260096020526040902080546105da9190610557906112ce565b80601f0160208091040260200160405190810160405280929190818152602001828054610583906112ce565b80156105d05780601f106105a5576101008083540402835291602001916105d0565b820191906000526020600020905b8154815290600101906020018083116105b357829003601f168201915b5050505050610a22565b1415610629576105f860405180602001604052806000815250610a22565b61060860088054610557906112ce565b141561061657506060610654565b50606061062284610a52565b9150610654565b61063284610a76565b60405160200161064291906110c5565b60405160208183030381529060405290505b6000828260405160200161066992919061114e565b60408051601f198184030181529181526000878152600360205220549091506001600160a01b03166106bf57505060408051808201909152600a8152691253959053125117d25160b21b60208201529392505050565b6106c881610a91565b6040516020016106d8919061119b565b6040516020818303038152906040529350505050919050565b6106fb338261084b565b61077a576000818152600360208181526040808420546001600160a01b039081168086526005845282862033808852908552838720548888526004808752978590205496909552925163e800243760e01b815260ff9094161515958401959095529290921660248201526044810192909252606482015260840161034a565b6001600160a01b0382166107bb5760405163594d1b0160e11b81526001600160a01b038085166004830152831660248201526044810182905260640161034a565b600081815260046020908152604080832080546001600160a01b03199081169091556001600160a01b0387811680865260028552838620805460001901905590871680865283862080546001019055868652600390945282852080549092168417909155905184937fddf252ad1be2c89b69c2b068fc378daa952ba7f163c4a11628f55a4df523b3ef91a4505050565b6000818152600360205260408120546001600160a01b03848116911614806108a357506000828152600360209081526040808320546001600160a01b03908116845260058352818420908716845290915290205460ff165b806108c757506000828152600460205260409020546001600160a01b038481169116145b9392505050565b60006001600160a01b0384163b156109dc57604051630a85bd0160e11b81526001600160a01b0385169063150b7a02906109129033908990889088906004016111e0565b602060405180830381600087803b15801561092c57600080fd5b505af192505050801561095c575060408051601f3d908101601f1916820190925261095991810190611001565b60015b6109c2573d80801561098a576040519150601f19603f3d011682016040523d82523d6000602084013e61098f565b606091505b5080516109ba57604051634ed378d560e01b81526001600160a01b038616600482015260240161034a565b805181602001fd5b6001600160e01b031916630a85bd0160e11b1490506109e0565b5060015b949350505050565b60606109f2610263565b6109fb83610bf3565b604051602001610a0c9291906110ee565b6040516020818303038152906040529050919050565b600081604051602001610a3591906110a9565b604051602081830303815290604052805190602001209050919050565b6060610a5d826109e8565b610a65610c9c565b604051602001610a0c92919061106d565b6060610a8182610cab565b604051602001610a0c91906110a9565b6060815160001415610ab157505060408051602081019091526000815290565b60006040518060600160405280604081526020016113366040913990506000600384516002610ae09190611230565b610aea9190611248565b610af5906004611268565b67ffffffffffffffff811115610b1b57634e487b7160e01b600052604160045260246000fd5b6040519080825280601f01601f191660200182016040528015610b45576020820181803683370190505b509050600182016020820185865187015b80821015610bb1576003820191508151603f8160121c168501518453600184019350603f81600c1c168501518453600184019350603f8160061c168501518453600184019350603f8116850151845350600183019250610b56565b5050600386510660018114610bcd5760028114610be057610be8565b603d6001830353603d6002830353610be8565b603d60018303535b509195945050505050565b6060600080610c0184610d4d565b600101905060008167ffffffffffffffff811115610c2f57634e487b7160e01b600052604160045260246000fd5b6040519080825280601f01601f191660200182016040528015610c59576020820181803683370190505b50905081602001810192505b600019909201916f181899199a1a9b1b9c1cb0b131b232b360811b600a86061a8353600a8504945084610c97576109e0565b610c65565b606060088054610272906112ce565b6000818152600960205260409020805460609190610cc8906112ce565b80601f0160208091040260200160405190810160405280929190818152602001828054610cf4906112ce565b8015610d415780601f10610d1657610100808354040283529160200191610d41565b820191906000526020600020905b815481529060010190602001808311610d2457829003601f168201915b50505050509050919050565b60008072184f03e93ff9f4daa797ed6e38ed64bf6a1f0160401b8310610d8c5772184f03e93ff9f4daa797ed6e38ed64bf6a1f0160401b830492506040015b6d04ee2d6d415b85acef81000000008310610db8576d04ee2d6d415b85acef8100000000830492506020015b662386f26fc100008310610dd657662386f26fc10000830492506010015b6305f5e1008310610dee576305f5e100830492506008015b6127108310610e0257612710830492506004015b60648310610e14576064830492506002015b600a8310610e20576001015b92915050565b80356001600160a01b0381168114610e3d57600080fd5b919050565b600060208284031215610e53578081fd5b6108c782610e26565b60008060408385031215610e6e578081fd5b610e7783610e26565b9150610e8560208401610e26565b90509250929050565b600080600060608486031215610ea2578081fd5b610eab84610e26565b9250610eb960208501610e26565b9150604084013590509250925092565b60008060008060808587031215610ede578081fd5b610ee785610e26565b9350610ef560208601610e26565b925060408501359150606085013567ffffffffffffffff80821115610f18578283fd5b818701915087601f830112610f2b578283fd5b813581811115610f3d57610f3d61131f565b604051601f8201601f19908116603f01168101908382118183101715610f6557610f6561131f565b816040528281528a6020848701011115610f7d578586fd5b82602086016020830137918201602001949094529598949750929550505050565b60008060408385031215610fb0578182fd5b610fb983610e26565b915060208301358015158114610fcd578182fd5b809150509250929050565b60008060408385031215610fea578182fd5b610ff383610e26565b946020939093013593505050565b600060208284031215611012578081fd5b81516001600160e01b0319811681146108c7578182fd5b60006020828403121561103a578081fd5b5035919050565b6000815180845261105981602086016020860161129e565b601f01601f19169290920160200192915050565b6000835161107f81846020880161129e565b600b60fa1b908301908152835161109d81600184016020880161129e565b01600101949350505050565b600082516110bb81846020870161129e565b9190910192915050565b600b60fa1b8152600082516110e181600185016020870161129e565b9190910160010192915050565b67113730b6b2911d1160c11b8152825160009061111281600885016020880161129e565b61202360f01b600891840191820152835161113481600a84016020880161129e565b601160f91b600a9290910191820152600b01949350505050565b607b60f81b81526000835161116a81600185016020880161129e565b83519083019061118181600184016020880161129e565b607d60f81b60019290910191820152600201949350505050565b7f646174613a6170706c69636174696f6e2f6a736f6e3b6261736536342c0000008152600082516111d381601d85016020870161129e565b91909101601d0192915050565b6001600160a01b038581168252841660208201526040810183905260806060820181905260009061121390830184611041565b9695505050505050565b6020815260006108c76020830184611041565b6000821982111561124357611243611309565b500190565b60008261126357634e487b7160e01b81526012600452602481fd5b500490565b600081600019048311821515161561128257611282611309565b500290565b60008282101561129957611299611309565b500390565b60005b838110156112b95781810151838201526020016112a1565b838111156112c8576000848401525b50505050565b600181811c908216806112e257607f821691505b6020821081141561130357634e487b7160e01b600052602260045260246000fd5b50919050565b634e487b7160e01b600052601160045260246000fd5b634e487b7160e01b600052604160045260246000fdfe4142434445464748494a4b4c4d4e4f505152535455565758595a6162636465666768696a6b6c6d6e6f707172737475767778797a303132333435363738392b2fa264697066735822122037eeaeaf073ab702412c3a8d8723491d4bcc74b65148c02834ae2dc2f9c059af64736f6c63430008040033",
	"linkReferences": {},
	"deployedLinkReferences": {}
}