{
	"_format": "hh-sol-artifact-1",
	"contractName": "ERC721",
	"sourceName": "@0xver/solver/token/ERC721.sol",
	"abi": [
		{
			"inputs": [
				{
					"internalType": "bool",
					"name": "_isApprovedForAll",
					"type": "bool"
				},
				{
					"internalType": "address",
					"name": "_getApproved",
					"type": "address"
				},
				{
					"internalType": "address",
					"name": "_ownerOf",
					"type": "address"
				},
				{
					"internalType": "address",
					"name": "_sender",
					"type": "address"
				}
			],
			"name": "NonApprovedNonOwner",
			"type": "error"
		},
		{
			"inputs": [
				{
					"internalType": "address",
					"name": "_ownerOf",
					"type": "address"
				},
				{
					"internalType": "address",
					"name": "_sender",
					"type": "address"
				}
			],
			"name": "NonOwnerApproval",
			"type": "error"
		},
		{
			"inputs": [
				{
					"internalType": "address",
					"name": "_contract",
					"type": "address"
				}
			],
			"name": "TransferToNonERC721Receiver",
			"type": "error"
		},
		{
			"inputs": [
				{
					"internalType": "address",
					"name": "_from",
					"type": "address"
				},
				{
					"internalType": "address",
					"name": "_to",
					"type": "address"
				},
				{
					"internalType": "uint256",
					"name": "_tokenId",
					"type": "uint256"
				}
			],
			"name": "TransferTokenToZeroAddress",
			"type": "error"
		},
		{
			"inputs": [
				{
					"internalType": "address",
					"name": "_origin",
					"type": "address"
				},
				{
					"internalType": "address",
					"name": "_sender",
					"type": "address"
				}
			],
			"name": "TxOriginNonSender",
			"type": "error"
		},
		{
			"anonymous": false,
			"inputs": [
				{
					"indexed": true,
					"internalType": "address",
					"name": "_owner",
					"type": "address"
				},
				{
					"indexed": true,
					"internalType": "address",
					"name": "_approved",
					"type": "address"
				},
				{
					"indexed": true,
					"internalType": "uint256",
					"name": "_tokenId",
					"type": "uint256"
				}
			],
			"name": "Approval",
			"type": "event"
		},
		{
			"anonymous": false,
			"inputs": [
				{
					"indexed": true,
					"internalType": "address",
					"name": "_owner",
					"type": "address"
				},
				{
					"indexed": true,
					"internalType": "address",
					"name": "_operator",
					"type": "address"
				},
				{
					"indexed": false,
					"internalType": "bool",
					"name": "_approved",
					"type": "bool"
				}
			],
			"name": "ApprovalForAll",
			"type": "event"
		},
		{
			"anonymous": false,
			"inputs": [
				{
					"indexed": true,
					"internalType": "address",
					"name": "_from",
					"type": "address"
				},
				{
					"indexed": true,
					"internalType": "address",
					"name": "_to",
					"type": "address"
				},
				{
					"indexed": true,
					"internalType": "uint256",
					"name": "_tokenId",
					"type": "uint256"
				}
			],
			"name": "Transfer",
			"type": "event"
		},
		{
			"inputs": [
				{
					"internalType": "address",
					"name": "_approved",
					"type": "address"
				},
				{
					"internalType": "uint256",
					"name": "_tokenId",
					"type": "uint256"
				}
			],
			"name": "approve",
			"outputs": [],
			"stateMutability": "nonpayable",
			"type": "function"
		},
		{
			"inputs": [
				{
					"internalType": "address",
					"name": "_owner",
					"type": "address"
				}
			],
			"name": "balanceOf",
			"outputs": [
				{
					"internalType": "uint256",
					"name": "",
					"type": "uint256"
				}
			],
			"stateMutability": "view",
			"type": "function"
		},
		{
			"inputs": [
				{
					"internalType": "uint256",
					"name": "_tokenId",
					"type": "uint256"
				}
			],
			"name": "getApproved",
			"outputs": [
				{
					"internalType": "address",
					"name": "",
					"type": "address"
				}
			],
			"stateMutability": "view",
			"type": "function"
		},
		{
			"inputs": [
				{
					"internalType": "address",
					"name": "_owner",
					"type": "address"
				},
				{
					"internalType": "address",
					"name": "_operator",
					"type": "address"
				}
			],
			"name": "isApprovedForAll",
			"outputs": [
				{
					"internalType": "bool",
					"name": "",
					"type": "bool"
				}
			],
			"stateMutability": "view",
			"type": "function"
		},
		{
			"inputs": [
				{
					"internalType": "uint256",
					"name": "_tokenId",
					"type": "uint256"
				}
			],
			"name": "ownerOf",
			"outputs": [
				{
					"internalType": "address",
					"name": "",
					"type": "address"
				}
			],
			"stateMutability": "view",
			"type": "function"
		},
		{
			"inputs": [
				{
					"internalType": "address",
					"name": "_from",
					"type": "address"
				},
				{
					"internalType": "address",
					"name": "_to",
					"type": "address"
				},
				{
					"internalType": "uint256",
					"name": "_tokenId",
					"type": "uint256"
				}
			],
			"name": "safeTransferFrom",
			"outputs": [],
			"stateMutability": "nonpayable",
			"type": "function"
		},
		{
			"inputs": [
				{
					"internalType": "address",
					"name": "_from",
					"type": "address"
				},
				{
					"internalType": "address",
					"name": "_to",
					"type": "address"
				},
				{
					"internalType": "uint256",
					"name": "_tokenId",
					"type": "uint256"
				},
				{
					"internalType": "bytes",
					"name": "_data",
					"type": "bytes"
				}
			],
			"name": "safeTransferFrom",
			"outputs": [],
			"stateMutability": "nonpayable",
			"type": "function"
		},
		{
			"inputs": [
				{
					"internalType": "address",
					"name": "_operator",
					"type": "address"
				},
				{
					"internalType": "bool",
					"name": "_approved",
					"type": "bool"
				}
			],
			"name": "setApprovalForAll",
			"outputs": [],
			"stateMutability": "nonpayable",
			"type": "function"
		},
		{
			"inputs": [],
			"name": "totalSupply",
			"outputs": [
				{
					"internalType": "uint256",
					"name": "",
					"type": "uint256"
				}
			],
			"stateMutability": "view",
			"type": "function"
		},
		{
			"inputs": [
				{
					"internalType": "address",
					"name": "_from",
					"type": "address"
				},
				{
					"internalType": "address",
					"name": "_to",
					"type": "address"
				},
				{
					"internalType": "uint256",
					"name": "_tokenId",
					"type": "uint256"
				}
			],
			"name": "transferFrom",
			"outputs": [],
			"stateMutability": "nonpayable",
			"type": "function"
		}
	],
	"bytecode": "0x608060405234801561001057600080fd5b50610a01806100206000396000f3fe608060405234801561001057600080fd5b506004361061009e5760003560e01c80636352211e116100665780636352211e1461013a57806370a0823114610163578063a22cb4651461018c578063b88d4fde1461019f578063e985e9c5146101b257600080fd5b8063081812fc146100a3578063095ea7b3146100e957806318160ddd146100fe57806323b872dd1461011457806342842e0e14610127575b600080fd5b6100cc6100b1366004610904565b6000908152600460205260409020546001600160a01b031690565b6040516001600160a01b0390911681526020015b60405180910390f35b6100fc6100f73660046108b3565b6101fe565b005b6101066102b5565b6040519081526020016100e0565b6100fc610122366004610769565b6102cc565b6100fc610135366004610769565b6102dc565b6100cc610148366004610904565b6000908152600360205260409020546001600160a01b031690565b61010661017136600461071d565b6001600160a01b031660009081526002602052604090205490565b6100fc61019a366004610879565b6102f7565b6100fc6101ad3660046107a4565b610363565b6101ee6101c0366004610737565b6001600160a01b03918216600090815260056020908152604080832093909416825291909152205460ff1690565b60405190151581526020016100e0565b6000818152600360205260409020546001600160a01b0316331461025c57600081815260036020526040908190205490516354b6bb9b60e01b81526001600160a01b0390911660048201523360248201526044015b60405180910390fd5b60008181526004602052604080822080546001600160a01b0319166001600160a01b0386169081179091559051839233917f8c5be1e5ebec7d5bd14f71427d1e84f3dd0314c0f7b2291e5b200ac8c7c3b9259190a45050565b60006001546000546102c79190610992565b905090565b6102d783838361040a565b505050565b6102d783838360405180602001604052806000815250610363565b3360008181526005602090815260408083206001600160a01b03871680855290835292819020805460ff191686151590811790915590519081529192917f17307eab39ab6107e8899845ad3d59bd9653f200f220920489ca2b5937696c31910160405180910390a35050565b61036d3383610564565b6103ec576000828152600360208181526040808420546001600160a01b039081168086526005845282862033808852908552838720548988526004808752978590205496909552925163e800243760e01b815260ff90941615159584019590955292909216602482015260448101929092526064820152608401610253565b6103f784848461040a565b610403848484846105e7565b5050505050565b6104143382610564565b610493576000818152600360208181526040808420546001600160a01b039081168086526005845282862033808852908552838720548888526004808752978590205496909552925163e800243760e01b815260ff90941615159584019590955292909216602482015260448101929092526064820152608401610253565b6001600160a01b0382166104d45760405163594d1b0160e11b81526001600160a01b0380851660048301528316602482015260448101829052606401610253565b600081815260046020908152604080832080546001600160a01b03199081169091556001600160a01b0387811680865260028552838620805460001901905590871680865283862080546001019055868652600390945282852080549092168417909155905184937fddf252ad1be2c89b69c2b068fc378daa952ba7f163c4a11628f55a4df523b3ef91a4505050565b6000818152600360205260408120546001600160a01b03848116911614806105bc57506000828152600360209081526040808320546001600160a01b03908116845260058352818420908716845290915290205460ff165b806105e057506000828152600460205260409020546001600160a01b038481169116145b9392505050565b60006001600160a01b0384163b156106f557604051630a85bd0160e11b81526001600160a01b0385169063150b7a029061062b90339089908890889060040161091c565b602060405180830381600087803b15801561064557600080fd5b505af1925050508015610675575060408051601f3d908101601f19168201909252610672918101906108dc565b60015b6106db573d8080156106a3576040519150601f19603f3d011682016040523d82523d6000602084013e6106a8565b606091505b5080516106d357604051634ed378d560e01b81526001600160a01b0386166004820152602401610253565b805181602001fd5b6001600160e01b031916630a85bd0160e11b1490506106f9565b5060015b949350505050565b80356001600160a01b038116811461071857600080fd5b919050565b60006020828403121561072e578081fd5b6105e082610701565b60008060408385031215610749578081fd5b61075283610701565b915061076060208401610701565b90509250929050565b60008060006060848603121561077d578081fd5b61078684610701565b925061079460208501610701565b9150604084013590509250925092565b600080600080608085870312156107b9578081fd5b6107c285610701565b93506107d060208601610701565b925060408501359150606085013567ffffffffffffffff808211156107f3578283fd5b818701915087601f830112610806578283fd5b813581811115610818576108186109b5565b604051601f8201601f19908116603f01168101908382118183101715610840576108406109b5565b816040528281528a6020848701011115610858578586fd5b82602086016020830137918201602001949094529598949750929550505050565b6000806040838503121561088b578182fd5b61089483610701565b9150602083013580151581146108a8578182fd5b809150509250929050565b600080604083850312156108c5578182fd5b6108ce83610701565b946020939093013593505050565b6000602082840312156108ed578081fd5b81516001600160e01b0319811681146105e0578182fd5b600060208284031215610915578081fd5b5035919050565b600060018060a01b0380871683526020818716818501528560408501526080606085015284519150816080850152825b828110156109685785810182015185820160a00152810161094c565b82811115610979578360a084870101525b5050601f01601f19169190910160a00195945050505050565b6000828210156109b057634e487b7160e01b81526011600452602481fd5b500390565b634e487b7160e01b600052604160045260246000fdfea264697066735822122048bb9e69e30ab5c710df61975f32b478f651c517efb94087dcca58cfcadd179964736f6c63430008040033",
	"linkReferences": {},
	"deployedLinkReferences": {}
}